:020000042000DA
:1000000000980020A1040020A9040020C1040020C1
:1000100000000000000000000000000000000000E0
:10002000000000000000000000000000D9040020D3
:100030000000000000000000F1040020F304002094
:1000400043260020312700200D3103001F27002008
:10005000AB2600208D3103004327002051270020CC
:10006000235900200118002091270020AD31030002
:1000700057810200F5040020F5040020F50400205B
:10008000F5040020F5040020F5040020A717002047
:10009000AB170020AF170020B3170020B7170020C0
:020000042000DA
:1001600032000000C10600202B2300207D3000203B
:10017000000000000000000063800200BD8002005B
:1001800055090020FB800200198102003581020020
:100190005D810200DD240020FD09002041090020CE
:1001A0004B09002000000000000000003F0000009C
:1001B000F48B002000040000740B080048010000CC
:1001C0006807080000040000C80C080020050000B3
:1001D000000000002000000048000000580000005F
:1001E0006800000004010000160100002801000062
:1001F0002E010000202A00008E2E000001000000C9
:1002000088130000B5230020E9600200FD9302007E
:100210007310002019280300A574020009060020AD
:1002200003000000D52002009130002004000000EF
:10023000D74902000F490200C90A00206391020059
:10024000B7910200BF910200078202007182020092
:10025000F45F0020AD830200938402004185020018
:1002600015860200378602005F860200758602004E
:10027000F9870200258902005D8A0200D38C020002
:10028000098D02000F900200438D0200278E0200AC
:10029000F98E0200478F0200B7080020D58F0200B8
:1002A00049510200775102002F5202001000000055
:1002B00020030000803E000000000000000000005D
:020000042000DA
:1002C000504600030003983A6400F401B80B000C98
:1002D000B80B120030003000CD009A01120024004B
:1002E00030006400B0001800280012001200D0078F
:1002F0000000FFFF00000000000000000000000000
:100300001F000002444131343538302D30310000B7
:1003100000000000000000000000000000000000DD
:0403200000000000D9
:020000042000DA
:10034000FFFF010000C201000000000000000000EB
:100350000000F4010100010A0B0B09030318021845
:100360000418F5FE0000000000000000000000007E
:10037000000000000000000000000AFF00D2444C12
:10038000472D424C45000000000000000000000026
:10039000000000000000000000004449414C4F47AD
:1003A0002D505258520000000000000000000000D4
:1003B000000000000000000000000000000000003D
:1003C000000000000000000000000000000000002D
:1003D0000000000000000000060000CAEA80D0070C
:0403E000064064323D
:020000042000DA
:100440000348854605F08CFA00480047C7200200A3
:10045000009800200E4906200880FF200D49013039
:1004600008600D4988683E2290432E308860002243
:10047000052000070280018A0F231B021943018215
:1004800001210648C90404C1401EFCD562B670476C
:100490000034005080E100E000330050FF0B00000A
:1004A000154880471548004704207146084203D08C
:1004B000EFF3098012490847EFF308801049084715
:1004C00004207146084203D0EFF309800D49084724
:1004D000EFF308800B49084704207146084203D017
:1004E000EFF3098008490847EFF3088006490847F9
:1004F000FEE7FEE7FEE7000055040020410400206F
:100500006D0500200D050020DD0B002005221207DF
:10051000518A802319435182124903680B60436852
:100520004B6083688B60C368CB6003690B61436970
:100530004B6183698B61C369CB6108620A48836A36
:100540004B62C36A8B62036BCB62C36B0B63436BFF
:100550004B63806B8863908A800601D500BE70472C
:10056000FEE700000018080000ED00E00521090783
:100570000A8A04231A430A820A8A02231A430A8235
:100580000A8940231A430A811B4B01221A601B4B24
:1005900008221A804A8A80231A434A82184A03682A
:1005A00013614368536183689361C368D3610369CE
:1005B00013624369536283699362C369D3621063B0
:1005C0001048836A5363C36A9363036BD363C36B3B
:1005D0000B4A40321360436B5360806B9060888A93
:1005E000800608D500BE488A012280088000D20318
:1005F000104348827047FEE780E200E0003300507D
:100600004018080000ED00E070B516460C4605469F
:10061000012802D00C2D26D10DE0062221492248C6
:1006200005F0B0F900281ED006221F49304605F01B
:10063000AFF9062012E01D4D29680878C00610D5D4
:100640002078202803D200202070042070BD0A7E6C
:100650003A31304605F09CF92868007E2070002071
:1006600070BD012070BD32462146284605F096F93E
:1006700070BD70B50E480F49C405228880252A43F5
:1006800022800D4A53891B0701D4401EFAD20B4A1F
:10069000012010600622044805F07AF92088A8435A
:1006A000208070BD383E0300C0810020C0060800D5
:1006B000A0860100D47F040020000050008000408C
:1006C00008B500F0A8F904F0DAFE05260024360784
:1006D000B50009E004216846009405F065F900289A
:1006E00014D000F0F6F811E0308900060ED5286B22
:1006F00000040BD405F05EF9C00707D1042005F013
:100700005FF9074605F062F9002FE3D104F0C4FE5B
:10071000EAE7704730480178002902D08021417013
:1007200070472E49002008702D49C87070472A482C
:100730000178002902D081214170704727490120AA
:1007400008702749C870704723480178002902D0F3
:1007500082214170704700BE204902200870204964
:100760000120C8707047002804D0012803D0022857
:1007700002D1E9E7CEE7DAE77047184900200978A7
:10078000002904D0012903D0022900D1022070479A
:100790000120704710490120C87070470E490020A1
:1007A000C87070470C48C07870470020EFF3108184
:1007B000012282F31088052212071289120605D43D
:1007C0000848028901231A4302811846002900D0F3
:1007D000012181F310887047C7810020540208006E
:1007E000C60608000033005070B5052000070189D7
:1007F00030229143018101898022114301810189C5
:1008000089088900491C0181018908231943018154
:10081000B5490C8814430C80448A9C434482058962
:10082000402425430581058A0426B5430582858A2F
:10083000AD07FCD5AD4E002575600E8801252E4311
:100840000E804D89AE05AA4D0E8801D52E4300E0DD
:10085000AE430E800D887826B54328350D800D886F
:10086000062635430D80458A1D4345820B889343F8
:100870000B800289A24302814889800503D59A49E9
:10088000052060318880012080070168821591432E
:100890000160984801683F2252029143421489182E
:1008A0000160016802031143016070BD10B59248F8
:1008B00005F092F810BD70B58B4C6088C006050F2E
:1008C00005F090F861881E2291436A00114361800F
:1008D00070BD70B589490120C863C86B0028FCD180
:1008E00001208007C169864800220368994200D22E
:1008F00002607E4C01266378824D002B04D062702A
:10090000016005F075F811E0026819238A1ADB010D
:100910009A4214D3016005F06BF82988884201D906
:10092000411A00E0091A89B2182908D32880012049
:1009300005F064F805F068F8002800D1667070BD15
:1009400008B505F067F8009008BD08B505F068F82F
:10095000009008BD08B56C4901204A695206D20FC3
:1009600013D04A699206D20F0FD000220A6100927A
:10097000FF225F32009B5B1C00939342FAD34969CC
:10098000C907C90F02D005F051F8002008BD1FB5F6
:10099000684601F0F6F8009805F04EF81FBD10B556
:1009A0005A4A0020117800290DD054490120C8630B
:1009B000C86B0028FCD101208007C0695449096830
:1009C000884201D2012010BD00201070FFF7D5FE33
:1009D000022803D0FFF7D1FE01280BD14D49082092
:1009E000088005200007818A8906FCD4418A80227C
:1009F00091434182002010BD0020704710B5464948
:100A000000200860FFF752FF01208007016B4900BA
:100A10004908016310BD10B53C49012008703D49EB
:100A20000820088005F00EF800F03CFDFF2401349A
:100A30000D202146800105F00BF8FFF71AFE04F0A7
:100A4000ADFC012004F0F8FF01F0D2FBFFF7CCFE73
:100A5000042000F041F8072000F03EF80A2000F0E2
:100A60003BF8062000F038F80B2000F035F80120A4
:100A700000F032F8022000F02FF8002000F02CF8EF
:100A80002648006804F0EAFF00F08BF800F0D7FC7D
:100A9000A005016821430160FFF779FF0024FFF7FB
:100AA00039FE02F04EFF02F083FDFFF7A7FF05209D
:100AB0000007C4820C494888E0229043A030488057
:100AC000012004F0D1FF10BD154910B5884200D0B7
:100AD00000BE04F0CFFF10BDC106C90E0120884042
:100AE000104908607047000020000050CC810020B1
:100AF0000010000000020040E2040000C0000040BE
:100B00007C0408007804080000100050C681002012
:100B1000AC690020003300508C03080004900020D2
:100B20001111111180E200E0FFB581B01F460E46A1
:100B30004D780C78002004F0A3FF042824D000286E
:100B40001DD121E04448816A2E206043091888881D
:100B50000207120F130004F099FF070505050F05A2
:100B60000F050F008204920E062A05D27278012A20
:100B700012D0072210438880641C6407640F284643
:100B80006D1EEDB20028DDD13B463146039A019837
:100B900004F082FF05B0F0BD204604F083FF002082
:100BA000F8E770B52D480378021D00212C4D07E0B1
:100BB000CC00165D002E01D12418A560491CC9B2D5
:100BC0009942F5D370BD028908892649101A80B26E
:100BD000884201D90120704700207047816920397F
:100BE000897F082905D21E4A890010325158816137
:100BF0007047FEE71D481C4901611D4941611D49BF
:100C000081611D49C1611D4901621D4941621D4942
:100C100081621D49C1621D4901631D4941631D492E
:100C200081631D49C1631B4910485C31403001603C
:100C30001A4941601A4981601A49C16001201A4964
:100C4000C00608601949CA691202120ACA61164927
:100C50008039086070470000180308000406080087
:100C60004461002030750000942703000084004098
:100C700062B600DF28A30200704701DF1CCA020031
:100C8000F8BD02DF40CB0200F5E703DF84D40200A9
:100C900004DF89B0BC330200F8BD05DFF8BD06DF14
:100CA000EC0C030070BD07DF80E100E000ED00E028
:100CB00070B516460D46104604F0E2FE002869D0D5
:100CC000340A304604F0DCFE012812D0A87A1E282F
:100CD00011D029460A310E2845D019DC801E0300A8
:100CE00004F0D4FE0B255829582D58315839583D59
:100CF0005800022070BD3146274804F0D9FE00217B
:100D0000204604F0DBFE0221304604F0DDFE41E027
:100D100018283CD006DC102819D012282BD0162811
:100D200038D130E0522822D0D22833D127E02046D3
:100D300004F0D0FE2EE0204604F0D2FE2AE0204649
:100D400004F0D4FE26E0204604F0D6FE22E0204641
:100D500004F0D8FE1EE0204604F0DAFE1AE0204639
:100D600004F0DCFE16E0204604F0DEFE12E0204631
:100D700004F0E0FE0EE0204604F0E2FE0AE0204629
:100D800004F0E4FE06E0204604F0E6FE02E0204621
:100D900004F0E8FE002070BD01280000F8B50D4603
:100DA000064681002B48EA884458521C20686B890B
:100DB000018F294F51430091014640314A89C98929
:100DC000511A8AB2991A89B2B94214D29A4212D0EF
:100DD000294604F0CDFE2D892049009804F0CEFE6E
:100DE0002818801C4034E0823002401C80B204216C
:100DF00004F06AFEF8BD2821304604F0C5FEF8BDB7
:100E0000F8B50546870013480C46C059C9880068E4
:100E1000114E024640325389D2899A1A92B28B1AE5
:100E20009BB2B34211D20B4E8A420ED004F0B2FEF6
:100E3000F05905225F30611C04F0AAFD2802401C15
:100E400080B2052104F040FEF8BD2821284604F0B8
:100E50009BFEF8BD4C030800FF7F00001027000038
:100E600070B50446007800250D2801D00A2200E064
:100E700002225A494B7A002B06D00D2804D0637CFD
:100E8000032B01D0432551E0097A8A4339D10D283B
:100E900009D00E2802D00F2803D134E0607C03284B
:100EA00004D3402542E0607C0328FAD8A07C0428C3
:100EB000F7D20A2908D0607C012822D0022820D04D
:100EC0006078032809D811E004F06AFE012806D1F1
:100ED0006078032803D0002801D0492526E004F0DB
:100EE0005FFE002802D160780228F6D83020035D2A
:100EF00022462046E17C3132143000F019F80546D4
:100F000014E0422512E004F04BFE012807D160787E
:100F1000052804D1A01D04F049FE0028DDD004F00E
:100F20003FFE002802D160780228D6D8284670BD3E
:100F3000FFB5002086B001216A4611700446059174
:100F40000021002C06D0089D099A1F239A4234D90B
:100F5000402032E01C23069D079AF7E76B185E7865
:100F6000330004F093FD1D26101010101010101007
:100F70001026262626262626262626262626101053
:100F8000101010102600059B03E06F46FF5CB7426F
:100F900004D05B1E5BB2002BF7DA03E0002B01DB11
:100FA0004A2006E0059B6F46FE54059B5B1CDBB2A6
:100FB00005936B5C491C5918C9B2914201D20028B3
:100FC000CCD0914202D04A200AB0F0BD641CE4B2F9
:100FD000022CF9D20028B3D0F6E7000098050800EB
:100FE00070B5EFF31085012080F31088264804F0D7
:100FF000E3FD0446002D1DD0012080F31088002C55
:1010000023D020462038C08B204988421DD16189D9
:10101000208904F0D7FD05000ED021461031A389A8
:1010200062892089A847002806D001280DD002280F
:101030000BD105E00020E0E7204604F0C9FD04E004
:10104000114821460C3004F0C9FDEFF31084012053
:1010500080F310880C480068002802D1012004F0B9
:10106000C3FD002C03D0012080F3108870BD002048
:10107000FAE710B5BC21064804F0BCFD0549012083
:1010800004F0BEFD10BD0000A80508003883000074
:1010900004060800E10F0020F3B581B001980C466A
:1010A0000102CA1D0E310223344804F0AFFD047062
:1010B00001990546022732488E00002C06D0042CE8
:1010C00016D0062C10D0072C3FD108E081590522FC
:1010D0004968897C114069708059C77335E00846BA
:1010E00004F09AFD687030E080590F21C1732CE044
:1010F000044680594068417C012902D1007E0128C4
:101100000FD0019804F08EFD01210028A0590BD0CA
:101110004268D07D00281CD001281AD004280DD0A8
:101120000FE0002068700DE04068C27D022A01D007
:10113000042A06D1007C02280BD102E0107C022890
:1011400007D06F70A1590320C873284604F070FDC2
:10115000FEBD6970F6E701460A780120042A01D92C
:10116000002070474A78002A01D0012AF8D10A7974
:10117000082AF5D849790829F2D87047021C0000DE
:1011800028050800FFB589B00D4600206946059086
:1011900008720B98000A009004F044FD07460B9873
:1011A00004F06EFC00287DD00B982978000A84009A
:1011B000784E012963D0042904D0062948D0072994
:1011C00068D125E03059C17B032901D0042961D1C0
:1011D000697800291AD040681022A91C04F0D8FBB5
:1011E000002F06D03159C87B032807D0042808D027
:1011F00050E03059C07B032803D04BE00B20C8736C
:1012000048E00521009804F019FD43E00120B6E014
:101210003059C07B0E283DD1009804F0FDFC002120
:1012200003E02A18401C9170C0B21028F9D3688AD4
:1012300069460883294606A808221431023004F0C2
:10124000A7FB06ABAA1C3946009804F0FDFC21E080
:101250003059C07B0F281DD1AA1C0A21009804F028
:10126000F9FC002F04D03946009804F0F9FC11E095
:1012700000231A463946009804F0F8FC0AE0012FD2
:1012800008D10B9804F0FCFB01281CD0002801D0E9
:10129000022005906846007A002811D002AA052194
:1012A000009800E00CE004F0D5FC6846027A60206B
:1012B00002436846027201233946009804F0D6FCC6
:1012C00005980DB0F0BD3059C07B0228E2D1687896
:1012D000002851D002210B9804F0F6FB3059072268
:1012E0004068A91C173004F053FBE878002804D1AB
:1012F00030594068407C01283AD0009804F0BCFC8A
:10130000002837D0297A009804F0BCFC002833D09C
:10131000009804F0BDFC0121009804F0BFFC0028F7
:101320002CD030594068417E00292BD0042929D087
:10133000C17E027D1140C17630594068017F427DF7
:10134000114001776846007A0028A7D13059022160
:1013500042680098173204F07DFC305941684031F2
:10136000897B002913D004210098FFF795FE91E7AF
:10137000022004E0062002E0082000E00320694685
:1013800008728BE70021C17630594068D9E70B21FC
:10139000C1737FE72805080010B50C4604F084FCF3
:1013A00021888A002F4989580968002902D02E4BCC
:1013B000C968995010BD10B5144604F07BFC210A91
:1013C0008A00284989580968002902D0264BC96833
:1013D000995010BDFFB50F461546110A214A8800E5
:1013E000125881B012681E46002A01D0D46803E06A
:1013F0001D4A002314581350002C18D0201F428877
:101400001A4B9A4213D10088602810D120464030F0
:1014100002898A420BD18088002808D0A068002861
:1014200002D0204604F04CFC204604F04FFC33462A
:101430002A463946019804F04FFC05B0F0BD70B55E
:101440000B480378021D00210A4D07E0CC00165D11
:10145000012E01D12418A560491CC9B29942F5D3C7
:1014600070BD00004C030800E081002038830000BC
:10147000040608006C630020052000070188302264
:101480001143018001880322114301807047052028
:101490000007018830229143018001888908890072
:1014A00001807047FEB50020CC4E03462822002163
:1014B000424392198C00491C13510A29FADB401C43
:1014C0000428F3DB03F088FEC448002208380260D9
:1014D000426015460024C2486900475A0120A040D6
:1014E00080B207421CD0282068438019A1004058D0
:1014F000411C19D0002810D0C117224604F0F2FB7D
:101500002A0104F0EFFBB54B083B1A685B681043F7
:10151000B24A1943083A10605160641C0A2CDDDBA2
:101520006D1C042DD6DBFEBD0095019400BEE3E7E3
:10153000F8B5164604460D460A461F46012000210E
:1015400004F0D0FB220104F0CDFBA44B083B1A6849
:101550005B6810401940084300D100BE032C00D145
:101560000424A04960014018690008183E43C68061
:10157000F8BD70B504460D460A460120002104F06E
:10158000B1FB220104F0AEFB944A083A136852689A
:1015900018401140084300D100BE032C00D10424A0
:1015A0009049600140180121A940818070BD70B54B
:1015B00004460D460A460120002104F093FB220157
:1015C00004F090FB854A083A1368526818401140AD
:1015D000084300D100BE032C00D1042481496001DE
:1015E00040180121A940418070BDFFB581B00C4673
:1015F00005460A461F46012000210A9E04F072FBA0
:101600002A0104F06FFB754B083B1A685B681040B9
:101610001940084300D100BE002E2146284602D0C2
:10162000FFF7C5FF01E0FFF7A4FF3B462146284630
:10163000039AFFF77DFF05B0F0BDFFB585B01446F6
:10164000012000210F9F069A04F04CFB059A12011D
:1016500004F048FB614A083A136852681840114088
:10166000084300D100BE60A00068029020461338F5
:10167000FF26013686400090B0B200F09EF8002FA1
:1016800001D0012100E00021584D8140A889B043DC
:101690000143A9813F2000F090F88740A889800984
:1016A00080010743AF81B0B200F087F80E99814006
:1016B000288AB04301432982012600993046884098
:1016C000074680B200F079F808998140288AB8432B
:1016D000014329823F2000F070F8059902AA525C6C
:1016E0000699511881404148620040381018428BD9
:1016F0009209920111434183A007C20EFF2191403C
:1017000080209040002C0BDA2207120F083A930831
:10171000374A9B009B18DA698A430243DA6107E083
:10172000A308344A9B009A1813688B430343136041
:10173000E006C00E86403048066009B0F0BD70B5C6
:1017400001241338214681400D4688B200F035F857
:1017500084402648C189A9430C43C48170BD024618
:10176000133A042A05D81D4A8000A0328018803818
:101770004163704710B50446133804280BD820463F
:10178000FFF7DDFF1549A000A03140188038406BFD
:10179000002801D0804710BDE106C90E0120884015
:1017A0001649086010BD1320E4E71420E2E7152075
:1017B000E0E71620DEE71720DCE700280AD0411E0C
:1017C0004840C003010C002001E04908401C0029EA
:1017D000FBD100E0102080B270470000088000209C
:1017E0007C6300200030005001090F1900140050E4
:1017F00000ED00E000E400E000E100E080E200E055
:1018000010B5FFF744FE052109078888174AC30B66
:10181000104618D0164B1C88640714D51178890718
:1018200010D51988022211431980198849084900E6
:1018300019804468002C05D0985E0421595E0A2264
:101840009A5EA04710BD8988C906FBD51178C907E3
:10185000F8D0084901228A800A8880239A430A80A6
:1018600080680028EED0804710BD0000F88100207D
:101870000002005000010050464910B5884201D9CD
:10188000642010BD4449411878290BD8632109010F
:10189000401A0004792104F02BFA4821484300142F
:1018A0001C300FE03C49E0314118DF290CD85521AC
:1018B0000901401A0004E02104F01AFA18214843F3
:1018C0000014001DC0B210BD34494118DF2908D8EA
:1018D00047210901401A0004E02104F009FA8013AD
:1018E000F0E7002010BD2D4910B54942884209D3C8
:1018F00049424018642148434721C90004F0F8F9DF
:10190000C0B210BD002010BD10B525494989890518
:101910000AD5FF21B131884204D3401A64214843DB
:1019200089000AE0002010BD552109018842F9D341
:10193000401A64214843FF21613104F0D9F9C0B253
:1019400010BD10B5044600F08EF8032C0BD000201B
:1019500000F05EF880B200F01BF8012C12D0022CCF
:1019600013D0002010BD0E484089800501D501200C
:1019700000E0002000F04CF880B200F009F8FFF71A
:10198000C3FF10BDFFF778FF10BDFFF7ACFF10BD20
:1019900070470000A9060000CFF9FFFF8FFBFFFF93
:1019A0002000005008430121890303460B434149AD
:1019B0000B80414B18430880092002434A8070473E
:1019C0003C490A880F239B0100079A43800D02437C
:1019D0000A80704737483949028802231A43028037
:1019E000491E02D302889207FAD40021018140895E
:1019F00070470AE000BF00BF00BF00BF00BF00BFCC
:101A000000BF00BF00BF00BF00BF401EF2D2704742
:101A100070B50222510204464E003046FFF7C2FF65
:101A20001420FFF7E6FF002C01D0092000E007207A
:101A3000FFF7C6FFFFF7CEFF05460120FFF7D9FFEE
:101A4000022200213046FFF7ADFF002C01D0092013
:101A500000E00720FFF7B4FFFFF7BCFF4019154A6D
:101A60000021118070BDF0B5124C15482080142063
:101A7000FFF7BFFF01256D02A580E5802088E90002
:101A80000843208020888E10B0432080FFF7A2FFFB
:101A90000746208830432080FFF79CFF02467800ED
:101AA00071424018281A52005118691AA080E1802A
:101AB000F0BD00000015005001400000A0860100AC
:101AC0000148000008B58921052000070181012196
:101AD000614A4903118001888022114301800188F5
:101AE0008908890001805D48018A02221143018230
:101AF00000F0A8FB04F002F904F006F900206946A2
:101B000001E00888401C088008889128F9D308BDA6
:101B100008B55349002008804880534A514BD38070
:101B2000FF23D2331381C880C32151804F4A08213B
:101B300011806946088003E06A461188491C1180BB
:101B4000694609889129F7D36946088003E06A4607
:101B50001188491C1180694609889129F7D3694683
:101B600001E00888401C088008889128F9D308BD46
:101B70003F4A5080918001201080D088C007FCD15E
:101B80007047F1B5FFB0FFB094B011AC3348049486
:101B9000008AA41C1090FFF795FF314801880F912F
:101BA00041880E913049CA880D920A890C92C288E8
:101BB0000B92408B0A902F484088099048888446B1
:101BC000FFF7A6FF00252B46FF2111A8FFF7D0FF46
:101BD00000210A460846049E275C365C7E40F607D4
:101BE000F60F8E401643491CC9B2F2B2082906D13D
:101BF000FFA9C96C4A556D1C0021ADB20A461030D0
:101C0000FF2680B2B600B042E5D95B1C9BB2022B26
:101C1000DAD312491098088214490020088010482D
:101C20000F9901800E9941800F490D9ACA800C9A34
:101C30000A810B9AC2800A9A42830E4A0998508000
:101C4000604648800520000701888022914301807A
:101C50007FB07FB015B0F0BD00020040E030005012
:101C60000024005080800000602800502020005098
:101C700000350050002600507A4AD16090607047CD
:101C800010B5012000F045F90520000200F07CF9B4
:101C9000C0B210BD70B50024734DFFF7F1FFC0074F
:101CA00004D0641CAC42F8D30020C04370BD70B5B2
:101CB000FFF7F0FF002815D100F02BF96A4E002540
:101CC000062000F061F90024FFF7DAFFC10703D115
:101CD000800701D5002070BD641CB442F4D36D1C94
:101CE000322DEDD30020C04370BD70B506465D486F
:101CF0000D4680685119814201D9441B00E0144609
:101D0000FFF7C8FF00281AD1022000F002F900F006
:101D1000ADF8032128460906084300F01EF900200B
:101D200000F0F7F8002505E0002000F016F930700B
:101D3000761C6D1CA542F7D300F09FF8204670BDBD
:101D400070B5054647480E46C0681446824200D921
:101D500084B2FFF79FFF00281ED1FFF7A8FF0028DD
:101D60001AD1022000F0D5F800F080F801213046A9
:101D70004906084300F0F1F8002000F0CAF805E039
:101D800028786D1C00F0E9F8641EA4B2002CF7D18D
:101D900000F073F8FFF77EFF70BD70B50D46044686
:101DA000FFF785FF002802D00020C04370BD02204D
:101DB00000F0AFF82806204300F0E6F8FFF76AFFCE
:101DC00070BD10B50024FFF765FF002811D1012078
:101DD00000F09FF800F04AF80920000300F0BDF879
:101DE000002000F0BAF8002000F0B7F884B200F04C
:101DF00044F820B210BDF7B582B01A4F0E460091DC
:101E0000F96814460D46304603F0B8FE401C68439E
:101E1000451E002000F07DF8B868801BA04200D26B
:101E200004462646002719E000988019A84202D9E6
:101E300000982E1A761C0298B2B2C0190099FFF7CA
:101E40007FFF002803D00020C04305B0F0BD681C10
:101E500000900448BF19C0682D18E61BA742E3D3C1
:101E60003846F2E720900020400D030010B54C48A2
:101E700041780078FFF77DFB10BD10B548484178E8
:101E80000078FFF794FB10BDF8B50E46154644499F
:101E90000278079F0A7040781C464870FFF7EDFFF4
:101EA0000520000781880122D202114381803D482C
:101EB00001884908490001800188FF22813291434D
:101EC000F20111430180018840229143AA0111438C
:101ED0000180018804229143A200114301800188FE
:101EE00002229143069A5200114301800188012287
:101EF00092039143BA031143018001881822914350
:101F0000089AD20011430180018801221143018007
:101F1000F8BD24490A88520852000A800A88FF2323
:101F200081339A43C00102430A800888012210438A
:101F30000880704710B51B48018849084900018096
:101F40000520000781880122D20291438180144834
:101F500041780078FFF72BFB10BD10B51149002325
:101F60000A88D205920F012A01D9040C8C8048807E
:101F700008888004FCD50120C880012A01D98888FE
:101F800003044888C01810BD10B50446FFF76EFF63
:101F90002046FFF7E2FF0446FFF76FFF204610BD23
:101FA0003090002000120050F0B58F4D2B700523AB
:101FB0001B079C88202634439C808C4C0023A381E3
:101FC0008A4B6126603B1E801E880627BE4349005F
:101FD0000E431E8019881026B14312011143198047
:101FE0008105890D99800121A181218A8906FCD46E
:101FF0006870F0BD7D490020888105200007818838
:10200000202291438180704770B5784B774C774D93
:102010000822603B75482034203D1A82018A490716
:10202000FCD5018A8906FCD42188AE8AC907F4D17F
:1020300070BD30B501046C4C0B0E6C4922786039D0
:10204000012A02D0022A0ED110E0684A00259581AB
:10205000C5036478ED0F25438D8001249481148A93
:10206000A406FCD40B82C0B2088230BD0202120E5C
:102070000A82F7E7F0B5044615460846FFF7D9FF90
:102080005A4900226039FF235848013304E0068A88
:10209000B607FCD50B82521CAA42F8D3EFF310838B
:1020A000012282F31088002209E0068B002EFCD06A
:1020B0000E8A27683E702668761C521C2660AA424B
:1020C000F3D3002B03D0012080F31088F0BD002053
:1020D000FAE7F7B50E46002A09D001204004841B18
:1020E000944200D314462546FFF78EFF08E00020F7
:1020F000FEBD202231466846FFF7BCFF2036203C5B
:10210000202CF6D2002C04D0224631466846FFF738
:10211000B1FF2846FEBD30B50C460546FFF774FFFB
:102120002846FFF786FF3148018A8907FCD52F49E9
:1021300060390C82018A4907FCD5018A8906FCD4E2
:1021400030BDF0B506468C460846012100254904FD
:102150008C4529D2C0B249120C1AA24200D21446B0
:10216000FFF752FFEFF31087012080F310886046DD
:10217000FFF75FFF1D491D486039028A9207FCD5B1
:102180003278761C0A82641E6D1CA4B2ADB2002C9B
:10219000F3D1002F0AD0012181F31088018A490769
:1021A000FCD5018A8906FCD42846F0BD0021F3E75E
:1021B000F0B50646012040040D46814201D30020BF
:1021C000F0BD401B904200D202461446002706E0B4
:1021D000A2B2E919F019FFF7B4FF3F18241A002C36
:1021E000F6D13846F0BD0000329000206013005058
:1021F00030B58E498E48CA05148880231C4314804C
:102200008C4C65892D0701D4491EFAD28A4C0121D4
:1022100021608A4C01882180894940880880108883
:102220009843108030BD002070477047704770475A
:102230000020704701218907086B072210430863BB
:102240007047704730B580497E4808607F494C2010
:1022500008807E4C7E4B203C23827F497D4848800D
:102260007F487E4901807D49193141802221418189
:102270008121890001827B4941827B49018379491F
:1022800011314183764A794920329180412278493F
:1022900012018A80774ACA80764D1035CD810A8234
:1022A0004A82921C8A826A1FCA82FF2246320A83AD
:1022B000714A4A83714A592111807049704D203109
:1022C0000D8043254D806F4D5582D5228A80FF2297
:1022D000D3320A816C4A4A816C4A8A816D4A6C49C0
:1022E00011805A496C4A60394A80CA8810252A43AD
:1022F000CA80634A0A3A0A81544D684A403D6A805E
:10230000638208224A814E495C4A0988403A118218
:102310004A49634A0988118062490978002901D035
:102320003021018330BD4008704700B58BB05E4A54
:1023300042625E4A82625E4A42615E4AC2625E4AAE
:1023400002605E4A02625E4A42605E4AC2613E4A82
:102350003C48002110603C484038026B03129A430D
:102360000263426B1F231B049A4303231B04D218EE
:10237000426355480268C3129A430260026803131D
:102380009A43026068464154491CC9B22829FAD3CD
:10239000014628224D4803F0FBFAFFF753FF03F0F4
:1023A00027FB4B490880002003F028FB03F02CFB9F
:1023B0000BB000BD10B5244A0F212248090210605D
:1023C00021484038426B1F231B049A4303231B04FC
:1023D000D218426300060268D208D20002600520CB
:1023E0000007028992089200521C02810289082388
:1023F0001A430281028A0A4302820E4841898905F2
:1024000004D501887822914308310180FFF71AFF33
:102410003048006B0078002804D02F4800880B4912
:102420006039C880012003F01FFB10BDA0860100A9
:10243000087F040020000050008000405602080081
:102440004A0308004C05540780000040602C0050EF
:102450007F7F0000AC290000002200500909000025
:10246000002400502204000030D00000EE110000D3
:10247000002500502E02000044200000402800509B
:102480000D95000002420000E4DC00001092000004
:1024900053780000002A00508B1000009DD50000EA
:1024A0000026005004820020272200202B2200203A
:1024B00031220020352200202D220020432200203E
:1024C0002F220020272300200002004020000800C7
:1024D00078040800200200205204080070B501258D
:1024E000AD07AC6B2046FEF730FAC24903F046FB5D
:1024F00027221201511A00D10121BF4A50601160F8
:10250000286B0821884308432863BC480460BC4802
:102510000068002802D0A04200D200BE70BDF0B515
:1025200087B000246A461472B6490A68002A60D04F
:10253000114640318B7C002B5BD0B34B012813D06C
:10254000108D1A460007803A0125126FC00EED0467
:102550004019105A6A46800B10711079002848D033
:102560001079012804D00FE0A7484030007B09E033
:1025700008894E256843A54D1A684019105ACA7C2F
:10258000000A801A6A461072107A00282AD0A04ADF
:102590009F48203A007B956A05E02E224243AC1802
:1025A000401C4007400F6F463A7A561E3E72002A82
:1025B000F3D1A2785406640E3C713A79D406E40E45
:1025C0003C769A692E235843904B463BC018105ACC
:1025D0003A46C006C00F38713879002802D1107E03
:1025E000002806D0087D002803D1C87D08221043AA
:1025F000C87507B0F0BD10B50520000741898907EF
:1026000008D0418989088900418182494A88520855
:1026100052004A800189802211430181018A0422EB
:1026200091430182818A8907FCD503F073FB012065
:1026300080070169490700D500BE01694907FCD53B
:1026400010BDF8B5744EF08800282DD10120F0801F
:1026500072490820088005273F077889800720D025
:10266000B88A400701D502F099FE6A4D288880217A
:10267000084328806A4CFF20608004202080FEF7F9
:10268000FBFE7D21C900E088A288000480188842F2
:10269000F9D905202080B08878802988802081435E
:1026A0002980604910200860F8BD70B5FEF7EFFE84
:1026B000FFF7A1FF0026584C0520E6800007418A5D
:1026C000802291434182554801894908490001818E
:1026D000D005816904221143816103F021FB514936
:1026E000102080310125086003F020FB03F024FB5B
:1026F000484826704089800510D5607800280DD1A3
:10270000494865700088C00708D10120FFF780F9AB
:102710008B218900884201D90220607070BD10B5FC
:1027200003F010FB00F05EF83B490120087010BD7B
:1027300010B501208007008A000601D500F052F88C
:1027400010BD10B50120FFF7EAFE03F001FB10BD3C
:1027500010B50124A407208A000718D50220FFF72E
:10276000DEFE03F0FBFA20684000400861000843E9
:1027700020602068C00FFCD11F4880300168090626
:10278000090E01D00121016023490420087010BD09
:1027900070B52648008885062548AD0E44681A485D
:1027A0004030006B0078002802D1284603F0DCFAA4
:1027B00020480089184EC00507D520060BD5E00734
:1027C00009D0284603F0D6FA03E0200603D5E00737
:1027D00001D003203070200403D5E00501D502208C
:1027E000307070BD10B50C490120887003F0C8FA34
:1027F00010BD000071020000400000401482002063
:10280000108200206C030800E00100204A0008004C
:1028100038030800200000500682002000330050DA
:102820000016005000E200E00015005000200050AB
:1028300000020040002C005010B50E212B4803F080
:10284000A5FA2B49202003F0A7FA0021202003F04D
:102850003BF910BD70B5254D06462988042320227A
:10286000244803F0D3F90446287903F09BFA20802A
:10287000A670204603F0DCF970BD7CB504461B4E03
:102880001C48318808232022C01E03F0BFF90480B1
:10289000054600241FE03019817A890708D56200B7
:1028A000012152195180817AFD221140817203E089
:1028B000002061004919488060008019C0886A467C
:1028C000801C80B201A903F073FA009829190078DE
:1028D000641C8871E4B2307BA042DCD8284603F047
:1028E000A7F90121202003F0EFF87CBD1882002019
:1028F000C863002006800000FFB587B00F460720A0
:1029000069460872BD4C2020608038780025022876
:1029100056D82073002646E0B8194078A1190591D1
:102920008872012805D16946087A0821084369465A
:102930000872207B012805D96946087A10210843CE
:1029400069460872099800907000AD49001901911C
:102950000390801D0023052202A903F02FFA050031
:102960001CD103980021C08803F02EFA0546059873
:10297000807A012812D1122069460874039804ABAA
:10298000C0880122401C80B2002103F023FA039882
:102990009C49C088801C80B203F022FA0720694657
:1029A000761C0872F6B23878B04202D9002DB3D046
:1029B00007E0002D05D10121202003F085F800E07B
:1029C00081250123202290480A9903F01FF9057000
:1029D00003F02EF900200BB0F0BDF0B585B00D4628
:1029E00000206946854E08813380288803F0FEF96F
:1029F0003071FF2801D0002452E0834B89215B1CF9
:102A00009A1C7E4800F00FFB52E061007B482A19B7
:102A100003920E180491F0880327801C0A3280B2BA
:102A2000012103F0E9F975480019817A012920D1C3
:102A3000E9780427012915D104996B4649198A8838
:102A40001A81898801290DD1032181720398017AA5
:102A5000807A814206D0F0880021801C82B26748CB
:102A600000F0F7FAF08802AAC01C80B2022103F03D
:102A7000C3F96248007B01280CD9E00041190C31F0
:102A8000684600F0C1FAF0886A46C01980B2072192
:102A900003F0B2F9A978F08803F096F9641CE4B267
:102AA0005648017BA142B0D80221202003F00CF847
:102AB000002005B0F0BD70B5504D0C46287903F0EC
:102AC00071F92188884221D1A078297B88421DD2C2
:102AD000E17864291AD840004019C088E21C801CA3
:102AE00080B2012103F088F9A07829460A31415CBF
:102AF000890709D540004019C0880021801C82B296
:102B0000284600F0A6FA04E08A2000E08120FFF7C2
:102B1000A1FE002070BDF8B50F4638498025002081
:102B20000A7B09E044006118C9883B88C91C8B42B4
:102B300000D10025401CC0B23049824201D9802D0D
:102B4000F0D0401EC6B2002D0FD1787A397A00023B
:102B50000843694608800AD0012808D08025274804
:102B6000398800792A4603F04DF90020F8BD234C3E
:102B700070000019C0880A46C01C80B2022103F010
:102B80003BF96846008801281FD0A019817AFD22F0
:102B900011408172F8790028E1D018480623018895
:102BA00019482022801D03F031F8044613480079AB
:102BB00003F0F8F8208069460988A170090AE170DD
:102BC0002671204603F034F8C9E7A019817A022261
:102BD0001143DEE710B50878122802D14878FFF7D4
:102BE00039FE002010BD10B5044A180A127990422F
:102BF00002D10888FFF741FE002010BD1882002096
:102C000084630020010200000180000010B5122141
:102C1000244803F0BBF824491C2003F0BDF8002130
:102C20001C2002F051FF10BD30B5034601200021E9
:102C300003241A46CA40D20704D04D006D1C224618
:102C4000AA401043491CC9B20929F2D330BD02463B
:102C50000020122901D98D207047062A06D0072AA4
:102C600007D0082AF8D10729F5D170470829F2D1F1
:102C700070470629EFD3704770B50A4C0546218886
:102C800002231C22094802F0C1FF058002F0D0FF98
:102C9000E088002103F098F801211C2002F014FFC5
:102CA00070BD0000288200203C65002004700000F8
:102CB000FEB53B4E1C2070801D46174634460888E2
:102CC000FFF7B2FF029037483346019008331322D2
:102CD00002A90097A01D03F071F8040008D1F08844
:102CE000002103F071F8044601211C2002F0ECFEE3
:102CF00001231C2229462C4802F088FF047002F0B0
:102D000097FF0020FEBD70B50C4625490B8020784A
:102D1000082814D8CA880831415C51188DB2822D18
:102D20000BD06178FFF793FF010009D16D1C61782A
:102D3000A8B2A21C03F060F808E0822100E0812123
:102D4000194B17485B1CDA1C00F06DF9002070BDB0
:102D500070B51D460C46088803F048F8104AFF2855
:102D60001071158009D0A178D08803F02DF80221C8
:102D70001C2002F0A9FE002070BD0B4B89219B1C7A
:102D80009A1C074800F04FF9F5E710B5044A180AF5
:102D90001279904202D10888FFF76EFF002010BD23
:102DA00028820020286400200170000010B50C214A
:102DB000254802F0EBFF2549102002F0EDFF00212D
:102DC000102002F081FE10BD70B506461E480D466B
:102DD00014460188042310221D4802F017FF0480C6
:102DE0008670C57002F024FF70BD7CB5164C064697
:102DF000E088002102F0E8FF2089002802D00021AD
:102E000002F0E2FF6089002802D0002102F0DCFF1E
:102E10000F48218804231022401E02F0F7FE0546C9
:102E2000E0886A46801C80B201A902F0C1FF2E80B2
:102E300000980078A870284602F0FAFE01211020C0
:102E400002F042FE7CBD00003C82002010660020A3
:102E500002400000FFB5674C83B0102060806648D8
:102E600016460F4600230092019003221946A01D2A
:102E700002F0A4FF0546E088002102F0A5FF3878A3
:102E8000C0071CD05D48019000232046032219464C
:102E90000096083002F092FF2089002102F094FF92
:102EA00057480190002320460322194600960A3015
:102EB00002F084FF05466089002102F085FF002DA5
:102EC00003D10121102002F0FFFD012310224D4803
:102ED000069902F09BFE057002F0AAFE002007B0E2
:102EE000F0BD70B5434C0D462380088802F07EFF8C
:102EF0002071FF2823D0A978E08802F065FFE088E0
:102F0000EA1C801C80B2012102F076FF2089002893
:102F100002D0A97802F058FF6089002809D0801CEF
:102F200080B22A1D012102F067FFA978608902F0B2
:102F30004BFF0221102002F0C7FD002070BD0123CD
:102F40009B035A1D89212B4800F06DF8F5E770B5F9
:102F5000284D0C4629798022180A88422AD1E9880E
:102F60002088891C884201D1012604E02989891C16
:102F700088421FD10226217A02290AD82246083225
:102F8000012102F039FFE079002801D0022E03D0A0
:102F90000022012E0AD00DE0287902F003FF237AE7
:102FA000024631461846FFF70FFF03E021882879D3
:102FB00002F028FF002070BD1CB50E480C460279B7
:102FC000190A914214D1A17813290ED016290CD0D8
:102FD000C0886A46801C80B201A902F0E9FE009810
:102FE000228800780121FFF7EFFE2088FFF7FDFE21
:102FF00000201CBD3C8200208C650020B0650020B4
:10300000D4650020044000000A7902704A794270B9
:103010000B8883701B0AC3708A79027149884171D9
:10302000090A81717047F8B514460F461E460546D9
:10303000428801880623204602F0E8FD04462879EC
:1030400002F0B0FE208027716680204602F0F0FD7D
:10305000F8BD70B51446428800790D4601020C3166
:103060000423244802F0D2FD002D01D0132100E0FA
:1030700012210170448002F0DBFD70BD10B5FFF736
:1030800095FEFFF7D9FB00F037F8FFF7BFFD10BD45
:1030900070B5064615460C46202002F0F1FC0228C9
:1030A00005D1E2B220232946304602F0B1FE1C20B1
:1030B00002F0E6FC022805D1E2B21C232946304684
:1030C00002F0A6FE102002F0DBFC022805D1E2B2DD
:1030D00010232946304602F09BFE362002F0D0FC39
:1030E000022805D1E2B236232946304602F090FE8E
:1030F00070BD00000D30000010B50821104802F02E
:1031000045FE1049362002F047FE0021362002F02D
:10311000DBFC10BD70B50A4D0446E888002102F0C2
:1031200053FE298804233622074802F06FFD0480ED
:1031300002F07EFD0121362002F0C6FC70BD0000C9
:103140004A820020C466002001D80000FFB58BB081
:103150000521C90268468182C91C0182FA4901839E
:10316000FA4C36216180062199250091082200231E
:1031700001953621A01D02F051FE05007ED1A01D53
:103180000125009501900222E08805AB114602F06E
:103190004BFEE088EE4A022102F02EFE03AE0196BD
:1031A0000095E08804AB0222132102F03DFE02AF3D
:1031B000092001970090E088E64B1022042102F0DC
:1031C00033FEE5496846007A48706846407A887060
:1031D0000A4668461321808902F00EFE019600958A
:1031E000E08804AB0222132102F01EFE09200197A1
:1031F0000090E088D94B1022042102F015FED84936
:103200006846007A48706846407A88700A46684680
:103210001321808902F0F0FD01960095E08804AB4F
:103220000222132102F000FE01970095E088CD4BA9
:103230001022042102F0F8FDCB496846007A48705C
:103240006846407A88700A4668461321808902F0F1
:10325000D3FD01960095E08804AB0222132102F011
:10326000E3FD092001970090E088C04B1022022165
:1032700002F0DAFD6846BE49007A00E058E0487086
:103280006846407A88700A4668461321808902F0B1
:10329000B3FD01960095E08804AB0222132102F0F1
:1032A000C3FD092001970090E088B24B1022142141
:1032B00002F0BAFDB0496846007A48706846407A24
:1032C00088700A4668461321808902F095FDAB4D4F
:1032D00001960095E08804AB0222132102F0A4FDC0
:1032E00001970095E088A64B1022012102F09CFD79
:1032F000A4496846007A48706846407A88700A4651
:1033000068461321808902F077FD09A909200191FF
:1033100000900222E08806AB114602F085FD0546CA
:10332000E088002102F050FD0121362002F0CCFBA4
:103330000123362294480E9902F068FC057002F0D1
:1033400077FC00200FB0F0BD3EB5804C0D46E08804
:1033500002AA0C3080B2694602F02AFDE08801AA78
:103360000D3080B2694602F023FDE088AA1C0C30C3
:1033700080B2012102F040FD01980088002806D0AB
:10338000E08800210C3082B22046FFF762FE002068
:103390003EBD10B56D480A46C0880421801D80B22C
:1033A00002F02AFD002010BD38B50D460020694608
:1033B000664C08802380288802F018FD2071FF28C1
:1033C00017D0E0886A460D3080B2022102F014FD69
:1033D000E0886A460C3080B2012102F00DFDA97828
:1033E000E08802F0F1FC0221362002F06DFB0020A3
:1033F00038BD654A1B23DB02521C89215348FFF765
:1034000012FEF4E7F8B5514D0C4629798022180ACE
:1034100088427DD1E988208826468B1C0027083603
:1034200098420ED1012100916188324602F0E4FCFD
:10343000E079002875D05448082336222988C01F17
:1034400010E00B1D984229D102210091618832467B
:1034500002F0D2FCE079002863D04B482988082389
:103460003622801F02F0D2FB0646287902F09AFC31
:1034700030807760E07A01067160A07A0004014331
:103480007160607A000201437160207A01437160CB
:103490000098B070304602F0CBFB42E00B460A3396
:1034A00098421BD104200090E079002839D036489A
:1034B000298818233622001F02F0A8FB0746287926
:1034C00002F070FC388062883146381D02F060FAE4
:1034D000A078F8700098B8703846DCE70B460833DF
:1034E000984220D1032100916188324602F084FC89
:1034F000E079002815D02448298806233622401F69
:1035000002F084FB0646287902F04CFC308000E093
:1035100018E0B780607A0102B180207A0143B1805F
:10352000B6E7002207E00D31884204D161883246B7
:1035300002F062FCF5E7A079012803D121882879FF
:1035400002F060FC0020F8BD022900004A82002041
:103550006066002062660020B0690020726600206C
:10356000C369002082660020D66900209266002090
:10357000E9690020A2660020FC6900200102000029
:10358000B26600200F6A002009D8000010B5054A75
:10359000180A1279904202D10888FFF7BBFD00207B
:1035A00010BD00004A82002010B500F01DFA10BDC9
:1035B00010B50021012000F0C5FC3F4802218171B7
:1035C0000021C17100F0D1FB00F072FD00F04EFE51
:1035D00000F046FA0120FDF7C6F810BD10B50C4604
:1035E0000C214843354940188078FF2809D0002134
:1035F0000120FDF7DCFF00F097F9208800F072F859
:1036000010BD00F0F1F910BD10B500210120FDF74B
:10361000B0FF00F0E9F910BD10B500F0FEF9002888
:1036200001D000F0E1F910BD704710B500F0DCF9F1
:1036300010BD10B501F0ABFC10BD38B5044600F06C
:10364000EDFA009004226946204601F0CAFC2046AB
:1036500001F0E0FC38BD10B501F008FD10BD10B55B
:103660000446497800F0E3FA204601F034FD204694
:1036700001F023FD10BD10B5044601F069FD0028DE
:1036800010D024200E496043401820308178002259
:10369000204600F097F9204601F074FD204601F025
:1036A00049FD10BD204601F080FD204601F042FD9D
:1036B000204600F06EF910BDBC8200206C82002014
:1036C0008E8200200021F74A05E0834201D10120CB
:1036D0007047491CC9B20C234B43D35CFF2BF4D178
:1036E00000207047F8B505460024EE4E0AE0801928
:1036F0008168002904D0641CE4B22846884701E0B0
:10370000641CE4B220460C214843315CFF29EED111
:10371000E44E00240C3609E08F19B968002903D063
:10372000FFF7D0FF002808D0641CE4B221460C202B
:103730004143705CFF28EFD1F8BD641CB968E4B266
:1037400028468847F2E770B5D64AD74C15460C355F
:103750000DE089184968002907D0C1B20C235943EC
:1037600089184968401C607025E0401C60706078D2
:103770000C214143535CFF2BEBD10AE04919496806
:10378000002903D0FFF79EFF00280DD02078401CB1
:10379000207021780C204143685CFF28EED1002086
:1037A00060702070012070BD20780C2141434919C0
:1037B0004968401C20708847002070BDFFB581B06B
:1037C00004461D46164618460A9F02F097FB0090D5
:1037D000257021463846009A02F02CFB002803D0C1
:1037E00000BE002020700DE02078B04200D300BE63
:1037F000721E904200D31046C2B222700099029805
:1038000002F0C6F8009802F04FFB05B0F0BDF0B52D
:10381000A54D99B0E86800285BD1502332220D21D4
:10382000A24802F0F3F90446E8600E202070002060
:1038300060709F48E081A08107202074012060749F
:1038400021460B2014310090481E20231C22179182
:103850000190FFF7B3FF21460C2031310090481E44
:1038600020231F2218910290FFF7A8FFE8681A2270
:10387000C17C2030571A017C1D20461A0020694661
:103880000874002F01DC002E23DD3E20087406AAF8
:1038900004A9022002F0CEFA002804D000BE0020C5
:1038A0006946087415E06846017C002911D08F42F2
:1038B00005DBE27C179806AB1218019807E08E42F0
:1038C00007DB2034227C189806AB1218029800F00F
:1038D000D6F8E86819B0F0BD10B5734CA0680028A0
:1038E00020D17248222332220D210A3802F08EF9AB
:1038F000032101700A21A0604170002141820175FD
:1039000041751722C28208220283102242838183DA
:103910006422C28320221154624910222339801C60
:1039200002F036F8A06810BD604810B501233222BD
:103930000D210B3802F06AF90221017002F078F9CA
:1039400010BD1CB558480C21183002F01FFA012494
:103950006846047004716A4601A9352002F06AFACB
:10396000002801D0684604704F49002018310C220D
:1039700042435218401C00061471000EF7D049490A
:103980003220483102F008FA0021322002F09CF87F
:103990001CBD10B5040000D000BE21020E31022370
:1039A0003222444802F032F90C22012154430170C2
:1039B0003D4A1321417018320021A218D17002F043
:1039C00037F910BD70B50D4601023A4814460E3164
:1039D0002C233222801E02F019F9014620310D728B
:1039E0004C7202F025F970BD10B5FFF710FF02F020
:1039F0001FF92D490020C8600221322002F064F82E
:103A000010BD2D4B10B59A4201D91A4602E0002A8A
:103A100000D1012202F014FA10BD10B501213220AC
:103A200002F052F8FFF78FFE10BD8CE610B5FFF7DD
:103A300053FF02F0FDF81C490020886010BD1A4AAF
:103A4000002124324B00D35C834203D1480080180C
:103A500040787047491CC9B20A29F3D30120704746
:103A6000114910B50020FF232431012442008B545A
:103A70005218401CC0B254700A28F7D310BD70B55C
:103A80000646481C1070092015460C465070224608
:103A90001946A81C01F07CFF3078A41C0019307076
:103AA00070BD000050670020548200200E340000DA
:103AB0004C0400000438000030750000FEB51C46C0
:103AC000089B0726514D6F4668C71346224601F0F2
:103AD0006BF9FEBD10B5104601F0D2FF002809D1E8
:103AE000012332220D214A4802F090F80121017091
:103AF00002F09EF8002010BD10B508780F2817DAE4
:103B0000012806D0022813D0032808D00E280FD190
:103B10000BE0487800280BD1FFF788FF08E04878D1
:103B2000002805D1FFF778FD02E0487801F08CFC11
:103B3000002010BDF8B51C4610460E4601F0A0FF4F
:103B4000022829D1240A00D000BE0C202746474372
:103B500030483D18AC70FF2C1AD00121E9700521C6
:103B6000322001F0B1FF2B483188C153707A68715F
:103B70003146A81D06220A3101F00AFF24202649F9
:103B8000604340182030817800222046FFF71AFF5A
:103B900031462046FFF722FD0020F8BD70B50878B9
:103BA00015460C460A280BD1104601F069FF04287F
:103BB00006D16078002803D10521284601F084FF52
:103BC000002070BD10B510460C4601F059FF0328C7
:103BD00003D0052801D0042802D12046FFF714FDA8
:103BE000002010BD10B510460C4601F049FF012819
:103BF00008D12078002805D1FFF717FF002801D051
:103C0000FFF713FD002010BD00207047C86700209B
:103C1000023400006C8200208E82002010B502F079
:103C200015F9174902F064F81648081810BDF8B5E0
:103C30000E4624214843144900244518AE7602F06C
:103C400005F92919641CE4B20874082CF7D3002480
:103C50001027381BB04201DD002007E002F0F6F823
:103C6000C117090E0918090A0902401A2855641CCF
:103C7000E4B2102CEDD302F0E9F82883F8BD00007F
:103C8000A0BB0D00A08601008E820020FEB51C4660
:103C9000089B04262A4D6F4668C71346224601F04A
:103CA00083F8FEBD10B50A78180A130001F0EEFE85
:103CB00008051515150815101315FFF7BAFC0CE0CB
:103CC0004A78012A01D0002A07D1FFF7B6FC04E0A8
:103CD000FFF7C1FC01E0FFF7C2FC002010BD1A0A8B
:103CE000180A70B524235843164B0D78C0180446A3
:103CF0002034022D02D0032D18D112E08978A17052
:103D0000C90713D0002A00D000BE0C214A430E4937
:103D100051184A79C276891D1C30062201F038FEFE
:103D200004E01046FFF735FE0020A070002070BDB3
:103D300010B5180AFFF79FFC002010BD0020704747
:103D4000106800208E8200206C82002010B5202197
:103D500003233222880201F059FF012101704170D2
:103D60000021817001F064FF10BD10B50120FDF746
:103D7000E8FD4049087010BD10B53E4CE17022715D
:103D80006371207010BD10B53A490A22C8803221F3
:103D90003948FFF736FE10BD70B506461C233222A7
:103DA0002021364801F032FF324D04462E81068034
:103DB0002020FFF744FEA0700122E2700021A180C4
:103DC0002B782372A372E1806172E1722C4BA38184
:103DD000E181042323746174A274204601F028FF5A
:103DE0000021022301220846FFF7C6FF2548FFF7FE
:103DF000CAFF70BD70B51F4C01256570E0780028C2
:103E000003D061792079FDF7D2FB1B48A570C82249
:103E10003221401CFFF7F5FD70BD10B50446174870
:103E2000042332222021C01C01F0F0FE114909892F
:103E3000018000218170C47001F0FAFE10BD70B5E0
:103E40000120FDF77EFD0B4D04462878844202D008
:103E50002046FFF7E2FF2C70E878002803D0052CFD
:103E600001D2FFF7C7FF70BD10B53221024801F043
:103E70001FFE10BDB282002002C8000002800000B8
:103E8000AD27000070170000FEB51C46089B0626F3
:103E9000254D6F4668C71346224600F085FFFEBDDC
:103EA00010B532220C4601231146900201F0AEFEFD
:103EB0002178017001F0BCFE002010BD0020704789
:103EC00010B5FFF7D1FF002010BD0020704710B5DE
:103ED0001446FFF7B4FF1548214602881448FFF73F
:103EE00090FD002010BD70B51248154600780028DE
:103EF00018D0114C114912480D4E2278761C0978C1
:103F00000078002A05D0FDF734FB00202070142231
:103F100004E0FDF74CFB01202070052229463046C5
:103F2000FFF76FFD002070BD30680020B8820020D0
:103F300002C80000B5820020B4820020B7820020B1
:103F4000B6820020304A10725172704710B52E4868
:103F50000021417101600171417A007AFDF709FB8E
:103F600032212A4801F0A4FD10BD70B5054610218C
:103F700006233222880201F049FE0446FFF7E6FFDD
:103F800025801020FFF75BFD1F49A0708879E07045
:103F9000C8792071204601F04BFE70BD10B51A4C57
:103FA000012860710ED03220206001202071617ADA
:103FB000207AFDF7FCFA2088322182B2134801F002
:103FC0003FFF10BD9620EFE710B5012332221021EC
:103FD0000F4801F01BFE0121017001F029FE10BD08
:103FE00010B5FFF7AFFF084801790129417A007A3F
:103FF00002D0FDF7BEFA10BDFDF7D9FA10BD0800DA
:1040000000D0CBE7A2E70000BC82002001C800007E
:1040100003400000FEB51C46089B0426214D6F4658
:1040200068C71346224600F0BFFEFEBD10B510461D
:104030000C4601F025FD012809D132220123114649
:10404000900201F0E3FD2178017001F0F1FD002004
:1040500010BD8878144988710020704710B50C464F
:10406000088801F0C3FEE278A178FFF7C8FF0020BE
:1040700010BD70B50C4C154621462279087A497A54
:10408000002A03D0FDF775FA002002E0FDF78FFA51
:10409000012020712088294682B2044801F0D0FE18
:1040A000002070BD60680020BC82002001C80000B4
:1040B000704710B51C2102233222880201F0A6FDB0
:1040C000FF217431018001F0B3FD10BD70B50546CC
:1040D000042332221C21074801F098FD0446058084
:1040E0001C20FFF7ACFCA0700020E070204601F01F
:1040F0009FFD70BD03700000FEB51C46089B0226A4
:104100004D4D6F4668C71346224600F04DFEFEBD7A
:10411000FEB510460D4601F0B3FC01287ED128788B
:10412000002879D10E2332221C21444801F06EFD73
:104130000446002020700B206070024640A1A01CA5
:1041400001F026FC204601F073FD0A2332221C21D7
:104150003A4801F05BFD04460120207007206070A2
:1041600002463AA1A01C01F013FC204601F060FDBC
:104170000B2332221C21314801F048FD0446062061
:10418000207008266670324632A1A01C01F000FCA7
:10419000204601F04DFD09270C2332221C2127481F
:1041A00001F034FD04460520207067703A462CA1CA
:1041B000A01C01F0EDFB204601F03AFD0C23322259
:1041C0001C211E4801F022FD044604202070677067
:1041D0003A4623A1A01C01F0DBFB204601F028FD9C
:1041E0000A2332221C21154801F010FD04460670F6
:1041F000072060700120A070D221684601800B2149
:10420000C90141807101818006226946E01C01F0EC
:10421000BFFB204601F00CFD012300E008E0322244
:104220001146900201F0F2FC2978017001F000FDC6
:104230000020FEBD00207047806800200270000052
:104240004469616C6F672053656D69004441313486
:1042500035387800123456FFFE9ABCDE00000000AC
:10426000765F352E302E322E31000000F9480021C5
:10427000017441618161C160F74A017711651421C0
:1042800001707047F348002101744161C1607047BB
:1042900010B5012332223621F04801F0B7FC00218D
:1042A000017001F0C5FC10BD70B505463621102324
:1042B0003222880201F0AAFC0446E648001F05806D
:1042C00025803620FFF7BBFBA070002161602046EF
:1042D000A16001F0ADFC70BD10B50446E0480423B8
:1042E0000288DE483621401E01F090FCD949091FA2
:1042F00009880180847001F09BFC10BD10B5D54C7D
:104300002078022801D1FDF775FE2078032801D11D
:10431000FDF710FE14202070002001F094F810BD6D
:10432000F8B50446CB48CF4F017A00250906090F9E
:10433000A170017AED430907090FE17001890904B1
:10434000090F217002891205130F63708068000C39
:10435000606028204143CA1999005058002801D0B4
:10436000284600E00120505026786278C11701F0FD
:10437000B9FC320101F0B6FCBB4E326873681043E1
:10438000194330607160A07828214843C119E07852
:1043900080000A58002A00D101250D502846A77830
:1043A000E278E91701F09EFC3A0101F09BFC3368CA
:1043B0007268184311433060716000250095617880
:1043C000207809232A46FDF710F90095E178A078B6
:1043D0000A230022FDF709F9F8BDFEB506460020C4
:1043E00001246404009001900346024601460290B5
:1043F00065123046FDF748FDFDF7E3FC9B4980B2AE
:10440000401806D02D210902401A02D0012800D1FF
:10441000840429462046FDF72FFCFEBDF8B504466E
:104420008C48904E017A00270906090FA171027A83
:10443000FF4313071B0FE37102891204120F22704E
:1044400002891205120F627082681202120FA270A6
:1044500082681203120FE2708268120F2271806864
:104460000001000F6071282041438A1999005058BB
:10447000002801D0384600E001205050A579E279AB
:10448000C11701F02FFC2A0101F02CFC764A1368B9
:1044900055681843294310605160A078282148438B
:1044A0008219E07881005058002801D0384600E099
:1044B00001205050A578E278C11701F013FC2A01C1
:1044C00001F010FC684D2A686B681043194328609E
:1044D0006960207928214843821960798100505809
:1044E000002801D0384600E001205050267962793A
:1044F000C11701F0F7FB320101F0F4FB2A686B6889
:1045000010431943286069602078282148435549A1
:104510004118607880000A58002A00D101270F5006
:10452000384626786278F91701F0DCFB320101F099
:10453000D9FB2B686A681843114328606960012021
:104540000090032636026178207808233246FDF772
:104550004CF800250095E179A07907233246FDF754
:1045600044F80095E178A07806233246FDF73DF83F
:1045700000956179207905230022FDF736F8F8BD12
:104580003EB5AA206946334C08702078132801A84C
:104590000FD0FFF7C5FE0298012380B2002202214E
:1045A000FDF702FD60686946801C0978FDF7B3FDE0
:1045B0000DE0FFF733FF01A8FFF70FFF616801224D
:1045C000891C6846FDF717FC40B2012800D1022083
:1045D000C0B23EBD10B5012000F035FF1D4C207863
:1045E000C00601D4012000E01020FFF775FE002076
:1045F00020746061A061E060207710BDF8B50F46BF
:104600000021060E134C35463960142E17D2257042
:1046100080B26060002D01D0012D07D11449280619
:1046200008436160002101F017FC386020781228EF
:1046300001D0132803D1606802281BD86074112EA2
:1046400036D01EDC022E30D016DC002E2DD0012EEE
:1046500023D12AE0CC8200204090002008D800001E
:104660004A8200200880002000800020F03DFFFFEB
:104670008C910020112022E0032E16D0102E0CD198
:1046800016E0FD2E2CD004DC122E0ED0132E04D1F9
:104690000BE0FE2E16D0FF2E0CD00820FFF71CFEDC
:1046A0001420207000203860F8BDFFF793FFF8BD9C
:1046B000082004E0FFF722FEFFF7E4FD0320FFF7E8
:1046C0000BFEF8BD207F002801D0042001E0FFF799
:1046D00057FFFFF701FEFFF711FEFFF7D3FDF8BD0F
:1046E000FA4801F0BFFBF8BD10B50446F8480423B2
:1046F00002883621F74801F089FA046001F098FA3F
:1047000010BDF0B5F44802240378E50185B0002B14
:104710000ED0012B0CD001464A688968022B31D09B
:10472000032B55D008242046FFF7D6FD05B0F0BD79
:10473000EA4E18063043002101F08EFBE649074699
:104740008004097C000C0A18AA424ED82A1A521A70
:1047500093B2E34AE0488A183146FC39C91805E0AB
:104760001368121F08C1037C1B1F0374037C002BFA
:10477000F6D1007800210006304301F06DFBB8420D
:1047800033D051E001204006104301F065FB06469E
:104790008004070CD048007CC019A84225D802A884
:1047A000FFF7BEFD0398012380B200220221FDF72E
:1047B000FBFBC94D68682A7CC119C948001DFDF77B
:1047C000F7FC0746FDF720FC20E0B04228D02BE0A4
:1047D00003200006104301F03FFB06468004070C4F
:1047E000BD48007CC019A84201D907249BE7684650
:1047F000FFF714FE6846FFF7F0FDB74D68682A7CA6
:10480000C119B748001DFDF7F6FA07462878696810
:1048100000060843A96801F01FFB297CB942D4D0E7
:104820000624FFF761FF7EE7FFF75EFFFFF766FDF7
:10483000FFF728FD77E770B502460020160BC0434E
:1048400036030C0B090500D0641C002C01D0002598
:104850000BE00124002520213046FDF79EFA0121BE
:1048600009037618002802D16D1CA542F3D370BD50
:104870000021FF2802D0401CC0B270470846704794
:10488000FF2802D0FF2905D006E0FF2908D0002923
:1048900006D001E0002801D0884201D902207047EB
:1048A0000120704710B58C4B1B78132B02D0FDF7FD
:1048B00010FC10BDFDF719FA10BDF7B59CB000272C
:1048C0001E980C463E46402805D32078702802D119
:1048D0006078512802D012201FB0F0BD65687E4973
:1048E0002846403008621F210C22090301A8FFF767
:1048F000D9FF0C2847D168460079702803D1684653
:104900004079522801D01420E6E7029812900398CB
:104910001390002D03D01299401AA84201D21320FF
:10492000DAE701A840221190FFF7BCFF40282AD106
:104930006846C07915906846817904A81890204689
:104940000C301790AA2907D168460079702803D146
:1049500068464079512803D00127002015900BE0CC
:1049600010221899179801F00DF8002804D1E06979
:104970000899884200D10227402213991198FFF725
:1049800091FF402801D01620A6E76846C079009024
:1049900068468079AA2807D168460079702803D133
:1049A00068464079512803D00126002000900BE092
:1049B00010221899179800F0E5FF002804D1E0694B
:1049C0000899884200D102261C98002801D00228AC
:1049D00007D9012F11D0012E1CD000991598FFF78F
:1049E0004FFF1790FF22402101A801F041FA1798CC
:1049F000022815D0022F2BD004E0FF22402101A86D
:104A000001F036FA344912984860002E22D0022E66
:104A100020D00EE0FF22402101A801F029FA01E098
:104A2000022E15D02C4913984860002F0ED0022F6B
:104A30000CD00126284F3878132810D0402201A826
:104A40007968FDF7B5FB40283DD10FE0159802E0ED
:104A5000152041E70098FFF70BFF0646EAE74035CF
:104A6000A9B27868FFF7E7FE00282CD16846C67126
:104A700060680290A0680390E16863692269A06998
:104A800004AD0EC50790E069089021786846017171
:104A9000617841712020015D08A8017120461E9CAB
:104AA00039784030403C132979681BD04031224688
:104AB000FDF77EFBA04206D1402279681198FDF7F0
:104AC00077FB40281AD0062006E7000011111111CB
:104AD0004A82002006D80000CC8200208C91002061
:104AE0003C90002040312246FDF785F9A042EAD1F2
:104AF000402279681198FDF77EF9E2E70020EBE6A5
:104B0000F0B5394C022585B00020384A616904E0CF
:104B1000237F165C73402377401C8142F8D82078AD
:104B20000026122806D0132832D00825E8B2FFF755
:104B3000D3FBFBE502A8FFF7F3FB0398012380B248
:104B400000220221FDF730FA6269002A02D0A06932
:104B5000002811D0A069216A82184B1C9A4240D8C3
:104B60008A4201D9091A61616168274609181F48FC
:104B70006269FDF71DFB28E0607C1C49FFF79DFE84
:104B8000002829D085B26661A069FFF7ADFDCDE7A9
:104B90006846FFF743FC6846FFF71FFC6269002A7E
:104BA00002D0A0690028E7D0A069216A82184B1CB6
:104BB0009A4216D88A4201D9091A6161616827466A
:104BC00009180A486269FDF716F97969814208D126
:104BD000B8694018B861D6E76269A1698918A1610E
:104BE000D1E70625CFE70000CC820020909000207E
:104BF000FEB51C46089B05265C4D6F4668C71346EC
:104C0000224600F0D1F8FEBD10B510460C4600F06B
:104C100037FF012809D1322201231146900200F00A
:104C2000F5FF2178017001F003F8002010BD70B588
:104C30004F4C0D462078142847D2A978002942D03D
:104C4000E168002938D0C0061DD4207CEA7881189C
:104C5000502933D847494018291D00F099FE207C7F
:104C6000E9784018C0B22074E168814201D1FFF7B1
:104C700048FD207CE168884202D90520FFF72CFB23
:104C80002078C0061FD5EA786069FF2381180133B8
:104C9000994215D838494018291D00F079FEE97865
:104CA000606940186061E168814201D1FFF728FF27
:104CB000E1686069884206D9052002E00720DDE747
:104CC0000720FFF709FB002070BD0820F9E708B5B1
:104CD0008878002806D048686946FFF78FFC00985E
:104CE000FFF702FD002008BD10B5887800280ED01F
:104CF0001F4A49689160107802280AD0032808D01A
:104D0000122804D0132802D00820FFF7E5FA00206B
:104D100010BD52680006104301F09EF8FFF7E4FC56
:104D2000F5E770B588780D4600281DD0A8880028C2
:104D300005D00F4C2178CA0603D4820701D0052084
:104D40000EE0142910D2C90605D4502807D8FFF761
:104D500099FAA88807E0FF210131884203D907208A
:104D6000FFF7BAFA00E0E060002070BD9068002014
:104D7000CC8200204090002090900020FFB583B0AE
:104D8000194F002401AEA00000963D5803A80FC89B
:104D9000A847002805D0641C082CF4D3002007B0D5
:104DA000F0BD68460079FAE7F8B5089C9C46079D77
:104DB0000346002C16D0641E14D40C4FE600AE5BE4
:104DC0009E4201D0BE420BD1E3005B195C68002C0F
:104DD00008D013466246A047069908700020F8BD27
:104DE000641EEBD50120F8BDB8680020FFFF00006D
:104DF0002F4A00218B00D358002B04D0491C0529D1
:104E0000F8DB2C4870478B00D0502B480818000462
:104E1000000CF6D0704770B50C46054600F03EF821
:104E2000002804DB224980000C50284670BD00BEDB
:104E3000204870BD10B51E4C0146241F2088002854
:104E400002D0FFF7E8FF10BD0846FFF7D1FF208032
:104E500010BD174810B5001F0088002803D000229D
:104E6000322101F00BF810BD70B51349049C494282
:104E70004118052901D3012070BD00F00FF800256D
:104E8000002807DB0A4A81005058002803D05550FB
:104E9000804700E000BE2570002070BD06494942F1
:104EA0004018052801D240B270470020C043704727
:104EB000F8820020FFFF000010C8000070470000CB
:104EC00070B51E4A00248318049D002B18D01C4A7C
:104ED000012B06D01949891E41180A2919D301202E
:104EE00070BD0878411E092908D88000001F10589D
:104EF000144B98421ED1880014501BE000BE19E0EC
:104F00004A8808781049401880B2322100F098FF92
:104F100010E00A49491E4018C0B2411E092908D8AC
:104F2000800081184039C86B002803D0CC638047CB
:104F300000E000BE2C70002070BD0000FC37FFFFB9
:104F40000C830020BD4E002005C8000070B500286D
:104F500000D000BE994D84002959002915D10102C5
:104F60000E311E233222964800F050FE01210170BE
:104F7000417028510022C2701023437103238370B3
:104F80000171027204228271C171285970BD10B57D
:104F9000040000D000BEFFF7D9FF00F049FE00205A
:104FA000864AA100505010BD70B5002800D000BE48
:104FB000824C8500241D6159002910D101020E3157
:104FC0001E2332227E4800F021FE042101700121BF
:104FD00041706051801C10227A4900F0D9FC605960
:104FE00070BD70B514460D46002800D000BE010209
:104FF0000E311E233222724800F008FE0421017097
:1050000001214170102C04D222462946801C00F058
:10501000BFFC70BD10B5040000D000BEFFF7C4FF98
:1050200000F006FE654A0020A100121D505010BD80
:1050300070B5002800D000BE604C8500083461596E
:10504000002911D101020E311E2332225C4800F0EA
:10505000DDFD06210170012141705A496051801C1B
:105060001022103100F094FC605970BD10B504009E
:1050700000D000BEFFF7DCFF00F0DAFD4F4A002051
:10508000A1000832505010BD70B5002800D000BEFD
:105090004A4D84000C352959002901D0084670BDBD
:1050A00001020E311E233222454800F0AFFD0721D8
:1050B000017001214170285170BD10B5040000D06D
:1050C00000BEFFF7E1FF00F0B3FD3C4A0020A10065
:1050D0000C32505010BD70B5040000D000BEFFF778
:1050E000D3FF054624204443374808222418A07ED5
:1050F0002877208B6882214628461031143000F032
:1051000047FC21461022A81C00F042FC70BD70B57F
:105110002A4D840010352959002901D0084670BD58
:10512000010227480E3112233222001D00F06EFDCD
:10513000285170BD10B5040000D000BEFFF7E7FF96
:1051400000F076FD1D4A0020A1001032505010BD25
:1051500070B50D46242148431B4944182220005DA8
:10516000C0070DD0204610300822A91C00F00AFC10
:10517000002805D1208B2988884201D1012070BDEB
:10518000002070BD10B5040000D000BEFFF7BFFFC7
:105190000121017024214C430B4961188A7E42741D
:1051A0001022401C00F0F4FB10BD10B5002800D008
:1051B00000BEFFF7ACFF0021017010BD348300205A
:1051C00014380000DF6800208E82002010B5002116
:1051D0000120FCF7ECF910BD70B57F480022816A10
:1051E000D243002901D0114600E00121CB170C0C5D
:1051F0001B0423430C04816278490D684E682C43DC
:1052000033430C604B60036B002B01D0144600E06D
:105210000124E317A50B9B042B4304630D68A4042E
:105220004E682C4333430C604B600369002B01D064
:10523000144600E00124E317250F1B012B430461F2
:105240000D6824014E682C4333430C604B60C369E6
:10525000002B01D0144600E00124E317650EDB01AA
:105260002B43C4610D68E4014E682C4333430C604A
:105270004B608368002B01D0144600E00124E31743
:10528000A50F9B002B4384600D68A4004E682C433F
:1052900033430C604B60C368002B01D0144600E020
:1052A0000124E317650FDB002B43C4600D68E400A5
:1052B0004E682C4333430C604B60436E002B01D08F
:1052C000134600E0012343660C685B014D680C60E7
:1052D0002B434B60036D002B01D0134600E00123EC
:1052E00003650C684D680C602B434B60436D002BCD
:1052F00001D0134600E0012343650C685B004D6854
:105300000C602B434B60C36D002B01D0134600E0B3
:105310000123C3650C68DB004D680C602B434B60B8
:10532000036E002B01D0134600E0012303660C68D6
:105330001B014D680C602B434B60436B002B00D16D
:1053400001224263D017530BC00418430C68D204E7
:105350004B68224318430A60486070BD1CB50020AA
:10536000034603220146009012020120FCF73DF99A
:10537000012400232202022120460094FCF735F983
:105380000A20012301901422022100941846FCF700
:1053900054F913491420FCF7E2F91CBD10B505249B
:1053A0002407208A022188432082A08A0007FCD596
:1053B0000C484188FF22013211434180FBF71AFC5F
:1053C000FFF7CCFF00210120FEF70AFE608A2021B2
:1053D0000843608210BD000008800020008000208B
:1053E000CD5100202000005010B5322000F048FBC5
:1053F000022801D1FEF7D8F810BD10B51948FFF703
:1054000019FD194800F0F0FD10BD10B5174840799E
:10541000002801D0FEF79AFD05200007808A40078A
:1054200001D5FFF7BBFFFBF7BDF9002808D001202D
:10543000FBF799F9FBF7B9F9FBF7B0F9FFF709FDAD
:10544000FFF7DBFF10BD704710B50446FEF77EFD89
:10545000442C01D1FBF79EF9FFF7CFFF2046FEF762
:10546000E3F810BDE95300200B540020BC8200205B
:1054700010B510490120087000F02CF810BD10B5CF
:1054800000F0C5F800F06DF80B491520FCF767F93E
:1054900000F067F8002010BD10B50648017801291A
:1054A00006D10021017000F067F904A000F0FDF8BA
:1054B00010BD000034900020715400200A0D2045DA
:1054C0006E64206F662062757A7A65725F746573A8
:1054D000740A0D0008B5002069460870312000F0FC
:1054E000F1F8002804D068460078400601D5012074
:1054F00008BD002008BD08B50020694608705F217E
:10550000202000F0F7F800282AD00921212000F0FF
:10551000F1F8002824D04021222000F0EBF80028E8
:105520001ED00021232000F0E5F8002818D0082123
:10553000242000F0DFF8002812D07F21322000F074
:10554000D9F800280CD06946262000F0BBF80028C6
:1055500006D02A21302000F0CDF8002800D001200C
:1055600008BDC8E77CB50024032636020223324674
:10557000042120460094FCF738F80022012307217B
:1055800010460094FCF731F8012508233246052126
:1055900002200095FCF729F807233246002102205B
:1055A0000094FCF722F806233246012102200094E1
:1055B000FCF71BF805230022032102200094FCF7CE
:1055C00014F800236A02042102200094FCF70DF86D
:1055D0000A20019000231522042100940220FCF7E8
:1055E0002CF810233246022100200095FBF7FDFF26
:1055F00011233246032100200095FBF7F6FF00231C
:105600003246032101200095FBF7EFFF7CBD7FB5FB
:105610000024052000070480134A08211180418AD4
:10562000202211434182418A802211434182018A12
:105630000225A9430182018AA9430182818A0907BF
:10564000FCD500F013F8052168464173057300236B
:10565000009401941A46012103A80294FCF714FC5B
:10566000FFF780FF7FBD00000033005005200007DA
:10567000828880210A4382801148818100218180B3
:105680000921018003218181018A40229143018205
:1056900001210181818849084900818070470849BA
:1056A0008A8A9206FCD50880704700B5034602E05E
:1056B000FFF7F5FF5B1C18780028F9D100BD00004A
:1056C0000010005038B50C4680060121800CC9033B
:1056D000401869460880FCF7C9FB69460888FCF752
:1056E0003CFC69460880FCF7C8FB694608882070C6
:1056F000012038BD800608B5800C08436946088043
:10570000FCF7B4FB69460888FCF727FCFCF7B5FBFF
:10571000012008BD70B5354C60780A2828D10020DA
:105720006070334800F04AFCA078324D4000285A9F
:10573000032100F023FA4004000C00F033FCA078B1
:1057400003214000285A00F019FA00F031FC2AA089
:10575000FFF7ABFF00F0F6F8A0781921401CC0B2AB
:1057600000F00CFAA170A088002801D0401EA08093
:105770006078401C607070BD10B520A0FFF795FFE9
:10578000012000F0FDFB032000F0EEFB01220021D0
:10579000104600F09DF8FF21F531C822480000F0C6
:1057A000B6F81B4800F0F8FB00F0B6F80F4C3220BA
:1057B000A08018A0FFF779FF1BA0FFF776FF27A0B6
:1057C000FFF773FF34A0FFF770FF00F0FDFB01E06F
:1057D00000F0B8F8A0880028FAD100F0FDFB002006
:1057E00000F0CEFB35A0FFF760FF10BD3690002023
:1057F000FFFF0000006900202A0000000A0D2A2097
:1058000054494D4552302054455354202A0A0D0026
:10581000155700200A0D54494D45523020737461CC
:1058200072747321000000000A0D596F75206361C6
:105830006E20686561722074686520736F756E6490
:105840002070726F64756365642062792050574DD3
:1058500030206F722050574D310000000A0D6966EC
:1058600020796F75206174746163682061206275AE
:105870007A7A6572206F6E2070696E732050305F87
:1058800032206F722050305F332072657370656311
:10589000746976656C792E000A0D506C6179696EB9
:1058A00067206D656C6F64792E20506C656173653F
:1058B00020776169742E2E2E0A0D00000A0D5449BE
:1058C0004D4552302073746F70706564210A0D006D
:1058D00030B5174B1C680825C907AC43090F0C43AA
:1058E0001C6019680424D207A143520F11431960A8
:1058F00019680222C0079143800F014319600D48C7
:1059000001688022090A09021143016030BD0A4B77
:1059100058809980DA807047FF200849013008607C
:10592000704707480068002800D000477047000013
:105930000034005008E400E00034005000E100E0D2
:105940003C90002010B503210120FBF730FE002021
:10595000401C9628FCD303210120FBF70AFE10BD52
:10596000064C0125064E05E02046E36807C82B4398
:1059700098471034B442F7D3FAF766FD7C690020EB
:10598000AC69002003B40148019001BD773B0300DE
:1059900003B40148019001BD213B030003B4014859
:1059A000019001BDD729030003B40148019001BD56
:1059B0002B69020003B40148019001BDC12D030011
:1059C00003B40148019001BD0921030003B401485B
:1059D000019001BDC92D030003B40148019001BD30
:1059E0002F2F030003B40148019001BD998F0200DD
:1059F00003B40148019001BD938F020003B4014834
:105A0000019001BDCD8C020003B40148019001BD9D
:105A1000418F020003B40148019001BD27680200D4
:105A200003B40148019001BD3968020003B4014884
:105A3000019001BDB780020003B40148019001BD8F
:105A40000F3B030003B40148019001BD551B020048
:105A500003B40148019001BDCF2B030003B40148FA
:105A6000019001BDCB2C030003B40148019001BD9E
:105A70000990020003B40148019001BD831D02009A
:105A800003B40148019001BDB326030003B40148EB
:105A9000019001BDFD3D030003B40148019001BD2B
:105AA000197D020003B40148019001BD05220200E6
:105AB00003B40148019001BDA528030003B40148C7
:105AC000019001BDD5AF020003B40148019001BDB2
:105AD0003126030003B40148019001BDA1A50200D5
:105AE00003B40148019001BDE3A5020003B40148DD
:105AF000019001BD87A8020003B40148019001BDD7
:105B0000A7A9020003B40148019001BD93AA0200B5
:105B100003B40148019001BD95AB020003B40148F4
:105B2000019001BDF9AB020003B40148019001BD31
:105B300069AC020003B40148019001BD17AD020039
:105B400003B40148019001BD77AD020003B40148E0
:105B5000019001BDF1AD020003B40148019001BD07
:105B600085AE020003B40148019001BD11AF0200EF
:105B700003B40148019001BD3350020003B4014851
:105B8000019001BDA73A030003B40148019001BD93
:105B90005548020003B40148019001BD1F500200A6
:105BA00003B40148019001BD7F0C030003B4014818
:105BB000019001BDAB0C030003B40148019001BD8D
:105BC000BF22020003B40148019001BDEB2603008F
:105BD00003B40148019001BD3524030003B401481A
:105BE000019001BD2F22020003B40148019001BDC4
